{
  "contractName": "OneEarnGovernance",
  "abi": [
    {
      "inputs": [
        {
          "internalType": "address",
          "name": "_lpToken",
          "type": "address"
        },
        {
          "internalType": "address",
          "name": "_rewardToken",
          "type": "address"
        },
        {
          "internalType": "uint256",
          "name": "_proposalCount",
          "type": "uint256"
        }
      ],
      "payable": false,
      "stateMutability": "nonpayable",
      "type": "constructor"
    },
    {
      "anonymous": false,
      "inputs": [
        {
          "indexed": false,
          "internalType": "uint256",
          "name": "id",
          "type": "uint256"
        },
        {
          "indexed": false,
          "internalType": "address",
          "name": "creator",
          "type": "address"
        },
        {
          "indexed": false,
          "internalType": "uint256",
          "name": "start",
          "type": "uint256"
        },
        {
          "indexed": false,
          "internalType": "uint256",
          "name": "duration",
          "type": "uint256"
        },
        {
          "indexed": false,
          "internalType": "address",
          "name": "executor",
          "type": "address"
        }
      ],
      "name": "NewProposal",
      "type": "event"
    },
    {
      "anonymous": false,
      "inputs": [
        {
          "indexed": true,
          "internalType": "address",
          "name": "previousOwner",
          "type": "address"
        },
        {
          "indexed": true,
          "internalType": "address",
          "name": "newOwner",
          "type": "address"
        }
      ],
      "name": "OwnershipTransferred",
      "type": "event"
    },
    {
      "anonymous": false,
      "inputs": [
        {
          "indexed": true,
          "internalType": "uint256",
          "name": "id",
          "type": "uint256"
        },
        {
          "indexed": false,
          "internalType": "uint256",
          "name": "_for",
          "type": "uint256"
        },
        {
          "indexed": false,
          "internalType": "uint256",
          "name": "_against",
          "type": "uint256"
        },
        {
          "indexed": false,
          "internalType": "bool",
          "name": "quorumReached",
          "type": "bool"
        }
      ],
      "name": "ProposalFinished",
      "type": "event"
    },
    {
      "anonymous": false,
      "inputs": [
        {
          "indexed": false,
          "internalType": "address",
          "name": "voter",
          "type": "address"
        },
        {
          "indexed": false,
          "internalType": "uint256",
          "name": "votes",
          "type": "uint256"
        },
        {
          "indexed": false,
          "internalType": "uint256",
          "name": "totalVotes",
          "type": "uint256"
        }
      ],
      "name": "RegisterVoter",
      "type": "event"
    },
    {
      "anonymous": false,
      "inputs": [
        {
          "indexed": false,
          "internalType": "address",
          "name": "voter",
          "type": "address"
        },
        {
          "indexed": false,
          "internalType": "uint256",
          "name": "votes",
          "type": "uint256"
        },
        {
          "indexed": false,
          "internalType": "uint256",
          "name": "totalVotes",
          "type": "uint256"
        }
      ],
      "name": "RevokeVoter",
      "type": "event"
    },
    {
      "anonymous": false,
      "inputs": [
        {
          "indexed": false,
          "internalType": "uint256",
          "name": "reward",
          "type": "uint256"
        }
      ],
      "name": "RewardAdded",
      "type": "event"
    },
    {
      "anonymous": false,
      "inputs": [
        {
          "indexed": true,
          "internalType": "address",
          "name": "user",
          "type": "address"
        },
        {
          "indexed": false,
          "internalType": "uint256",
          "name": "reward",
          "type": "uint256"
        }
      ],
      "name": "RewardPaid",
      "type": "event"
    },
    {
      "anonymous": false,
      "inputs": [
        {
          "indexed": true,
          "internalType": "address",
          "name": "user",
          "type": "address"
        },
        {
          "indexed": false,
          "internalType": "uint256",
          "name": "amount",
          "type": "uint256"
        }
      ],
      "name": "Staked",
      "type": "event"
    },
    {
      "anonymous": false,
      "inputs": [
        {
          "indexed": true,
          "internalType": "uint256",
          "name": "id",
          "type": "uint256"
        },
        {
          "indexed": true,
          "internalType": "address",
          "name": "voter",
          "type": "address"
        },
        {
          "indexed": false,
          "internalType": "bool",
          "name": "vote",
          "type": "bool"
        },
        {
          "indexed": false,
          "internalType": "uint256",
          "name": "weight",
          "type": "uint256"
        }
      ],
      "name": "Vote",
      "type": "event"
    },
    {
      "anonymous": false,
      "inputs": [
        {
          "indexed": true,
          "internalType": "address",
          "name": "user",
          "type": "address"
        },
        {
          "indexed": false,
          "internalType": "uint256",
          "name": "amount",
          "type": "uint256"
        }
      ],
      "name": "Withdrawn",
      "type": "event"
    },
    {
      "constant": true,
      "inputs": [],
      "name": "DURATION",
      "outputs": [
        {
          "internalType": "uint256",
          "name": "",
          "type": "uint256"
        }
      ],
      "payable": false,
      "stateMutability": "view",
      "type": "function"
    },
    {
      "constant": true,
      "inputs": [
        {
          "internalType": "address",
          "name": "account",
          "type": "address"
        }
      ],
      "name": "balanceOf",
      "outputs": [
        {
          "internalType": "uint256",
          "name": "",
          "type": "uint256"
        }
      ],
      "payable": false,
      "stateMutability": "view",
      "type": "function"
    },
    {
      "constant": true,
      "inputs": [],
      "name": "breaker",
      "outputs": [
        {
          "internalType": "bool",
          "name": "",
          "type": "bool"
        }
      ],
      "payable": false,
      "stateMutability": "view",
      "type": "function"
    },
    {
      "constant": true,
      "inputs": [],
      "name": "config",
      "outputs": [
        {
          "internalType": "bool",
          "name": "",
          "type": "bool"
        }
      ],
      "payable": false,
      "stateMutability": "view",
      "type": "function"
    },
    {
      "constant": true,
      "inputs": [],
      "name": "governance",
      "outputs": [
        {
          "internalType": "address",
          "name": "",
          "type": "address"
        }
      ],
      "payable": false,
      "stateMutability": "view",
      "type": "function"
    },
    {
      "constant": true,
      "inputs": [],
      "name": "isOwner",
      "outputs": [
        {
          "internalType": "bool",
          "name": "",
          "type": "bool"
        }
      ],
      "payable": false,
      "stateMutability": "view",
      "type": "function"
    },
    {
      "constant": true,
      "inputs": [],
      "name": "lastUpdateTime",
      "outputs": [
        {
          "internalType": "uint256",
          "name": "",
          "type": "uint256"
        }
      ],
      "payable": false,
      "stateMutability": "view",
      "type": "function"
    },
    {
      "constant": true,
      "inputs": [],
      "name": "lock",
      "outputs": [
        {
          "internalType": "uint256",
          "name": "",
          "type": "uint256"
        }
      ],
      "payable": false,
      "stateMutability": "view",
      "type": "function"
    },
    {
      "constant": true,
      "inputs": [],
      "name": "lpToken",
      "outputs": [
        {
          "internalType": "contract IERC20",
          "name": "",
          "type": "address"
        }
      ],
      "payable": false,
      "stateMutability": "view",
      "type": "function"
    },
    {
      "constant": true,
      "inputs": [],
      "name": "minimum",
      "outputs": [
        {
          "internalType": "uint256",
          "name": "",
          "type": "uint256"
        }
      ],
      "payable": false,
      "stateMutability": "view",
      "type": "function"
    },
    {
      "constant": true,
      "inputs": [],
      "name": "owner",
      "outputs": [
        {
          "internalType": "address",
          "name": "",
          "type": "address"
        }
      ],
      "payable": false,
      "stateMutability": "view",
      "type": "function"
    },
    {
      "constant": true,
      "inputs": [],
      "name": "period",
      "outputs": [
        {
          "internalType": "uint256",
          "name": "",
          "type": "uint256"
        }
      ],
      "payable": false,
      "stateMutability": "view",
      "type": "function"
    },
    {
      "constant": true,
      "inputs": [],
      "name": "periodFinish",
      "outputs": [
        {
          "internalType": "uint256",
          "name": "",
          "type": "uint256"
        }
      ],
      "payable": false,
      "stateMutability": "view",
      "type": "function"
    },
    {
      "constant": true,
      "inputs": [],
      "name": "proposalCount",
      "outputs": [
        {
          "internalType": "uint256",
          "name": "",
          "type": "uint256"
        }
      ],
      "payable": false,
      "stateMutability": "view",
      "type": "function"
    },
    {
      "constant": true,
      "inputs": [
        {
          "internalType": "uint256",
          "name": "",
          "type": "uint256"
        }
      ],
      "name": "proposals",
      "outputs": [
        {
          "internalType": "uint256",
          "name": "id",
          "type": "uint256"
        },
        {
          "internalType": "address",
          "name": "proposer",
          "type": "address"
        },
        {
          "internalType": "uint256",
          "name": "totalForVotes",
          "type": "uint256"
        },
        {
          "internalType": "uint256",
          "name": "totalAgainstVotes",
          "type": "uint256"
        },
        {
          "internalType": "uint256",
          "name": "start",
          "type": "uint256"
        },
        {
          "internalType": "uint256",
          "name": "end",
          "type": "uint256"
        },
        {
          "internalType": "address",
          "name": "executor",
          "type": "address"
        },
        {
          "internalType": "string",
          "name": "hash",
          "type": "string"
        },
        {
          "internalType": "uint256",
          "name": "totalVotesAvailable",
          "type": "uint256"
        },
        {
          "internalType": "uint256",
          "name": "quorum",
          "type": "uint256"
        },
        {
          "internalType": "uint256",
          "name": "quorumRequired",
          "type": "uint256"
        },
        {
          "internalType": "bool",
          "name": "open",
          "type": "bool"
        }
      ],
      "payable": false,
      "stateMutability": "view",
      "type": "function"
    },
    {
      "constant": true,
      "inputs": [],
      "name": "quorum",
      "outputs": [
        {
          "internalType": "uint256",
          "name": "",
          "type": "uint256"
        }
      ],
      "payable": false,
      "stateMutability": "view",
      "type": "function"
    },
    {
      "constant": false,
      "inputs": [],
      "name": "renounceOwnership",
      "outputs": [],
      "payable": false,
      "stateMutability": "nonpayable",
      "type": "function"
    },
    {
      "constant": true,
      "inputs": [],
      "name": "rewardPerTokenStored",
      "outputs": [
        {
          "internalType": "uint256",
          "name": "",
          "type": "uint256"
        }
      ],
      "payable": false,
      "stateMutability": "view",
      "type": "function"
    },
    {
      "constant": true,
      "inputs": [],
      "name": "rewardRate",
      "outputs": [
        {
          "internalType": "uint256",
          "name": "",
          "type": "uint256"
        }
      ],
      "payable": false,
      "stateMutability": "view",
      "type": "function"
    },
    {
      "constant": true,
      "inputs": [],
      "name": "rewardToken",
      "outputs": [
        {
          "internalType": "contract IERC20",
          "name": "",
          "type": "address"
        }
      ],
      "payable": false,
      "stateMutability": "view",
      "type": "function"
    },
    {
      "constant": true,
      "inputs": [
        {
          "internalType": "address",
          "name": "",
          "type": "address"
        }
      ],
      "name": "rewards",
      "outputs": [
        {
          "internalType": "uint256",
          "name": "",
          "type": "uint256"
        }
      ],
      "payable": false,
      "stateMutability": "view",
      "type": "function"
    },
    {
      "constant": false,
      "inputs": [
        {
          "internalType": "address",
          "name": "_rewardDistribution",
          "type": "address"
        }
      ],
      "name": "setRewardDistribution",
      "outputs": [],
      "payable": false,
      "stateMutability": "nonpayable",
      "type": "function"
    },
    {
      "constant": true,
      "inputs": [],
      "name": "totalSupply",
      "outputs": [
        {
          "internalType": "uint256",
          "name": "",
          "type": "uint256"
        }
      ],
      "payable": false,
      "stateMutability": "view",
      "type": "function"
    },
    {
      "constant": true,
      "inputs": [],
      "name": "totalVotes",
      "outputs": [
        {
          "internalType": "uint256",
          "name": "",
          "type": "uint256"
        }
      ],
      "payable": false,
      "stateMutability": "view",
      "type": "function"
    },
    {
      "constant": false,
      "inputs": [
        {
          "internalType": "address",
          "name": "newOwner",
          "type": "address"
        }
      ],
      "name": "transferOwnership",
      "outputs": [],
      "payable": false,
      "stateMutability": "nonpayable",
      "type": "function"
    },
    {
      "constant": true,
      "inputs": [
        {
          "internalType": "address",
          "name": "",
          "type": "address"
        }
      ],
      "name": "userRewardPerTokenPaid",
      "outputs": [
        {
          "internalType": "uint256",
          "name": "",
          "type": "uint256"
        }
      ],
      "payable": false,
      "stateMutability": "view",
      "type": "function"
    },
    {
      "constant": true,
      "inputs": [
        {
          "internalType": "address",
          "name": "",
          "type": "address"
        }
      ],
      "name": "voteLock",
      "outputs": [
        {
          "internalType": "uint256",
          "name": "",
          "type": "uint256"
        }
      ],
      "payable": false,
      "stateMutability": "view",
      "type": "function"
    },
    {
      "constant": true,
      "inputs": [
        {
          "internalType": "address",
          "name": "",
          "type": "address"
        }
      ],
      "name": "voters",
      "outputs": [
        {
          "internalType": "bool",
          "name": "",
          "type": "bool"
        }
      ],
      "payable": false,
      "stateMutability": "view",
      "type": "function"
    },
    {
      "constant": true,
      "inputs": [
        {
          "internalType": "address",
          "name": "",
          "type": "address"
        }
      ],
      "name": "votes",
      "outputs": [
        {
          "internalType": "uint256",
          "name": "",
          "type": "uint256"
        }
      ],
      "payable": false,
      "stateMutability": "view",
      "type": "function"
    },
    {
      "constant": false,
      "inputs": [
        {
          "internalType": "contract IERC20",
          "name": "_token",
          "type": "address"
        },
        {
          "internalType": "uint256",
          "name": "amount",
          "type": "uint256"
        }
      ],
      "name": "seize",
      "outputs": [],
      "payable": false,
      "stateMutability": "nonpayable",
      "type": "function"
    },
    {
      "constant": false,
      "inputs": [
        {
          "internalType": "bool",
          "name": "_breaker",
          "type": "bool"
        }
      ],
      "name": "setBreaker",
      "outputs": [],
      "payable": false,
      "stateMutability": "nonpayable",
      "type": "function"
    },
    {
      "constant": false,
      "inputs": [
        {
          "internalType": "address",
          "name": "_governance",
          "type": "address"
        }
      ],
      "name": "setGovernance",
      "outputs": [],
      "payable": false,
      "stateMutability": "nonpayable",
      "type": "function"
    },
    {
      "constant": false,
      "inputs": [
        {
          "internalType": "uint256",
          "name": "_quorum",
          "type": "uint256"
        }
      ],
      "name": "setQuorum",
      "outputs": [],
      "payable": false,
      "stateMutability": "nonpayable",
      "type": "function"
    },
    {
      "constant": false,
      "inputs": [
        {
          "internalType": "uint256",
          "name": "_minimum",
          "type": "uint256"
        }
      ],
      "name": "setMinimum",
      "outputs": [],
      "payable": false,
      "stateMutability": "nonpayable",
      "type": "function"
    },
    {
      "constant": false,
      "inputs": [
        {
          "internalType": "uint256",
          "name": "_period",
          "type": "uint256"
        }
      ],
      "name": "setPeriod",
      "outputs": [],
      "payable": false,
      "stateMutability": "nonpayable",
      "type": "function"
    },
    {
      "constant": false,
      "inputs": [
        {
          "internalType": "uint256",
          "name": "_lock",
          "type": "uint256"
        }
      ],
      "name": "setLock",
      "outputs": [],
      "payable": false,
      "stateMutability": "nonpayable",
      "type": "function"
    },
    {
      "constant": false,
      "inputs": [
        {
          "internalType": "uint256",
          "name": "id",
          "type": "uint256"
        }
      ],
      "name": "initialize",
      "outputs": [],
      "payable": false,
      "stateMutability": "nonpayable",
      "type": "function"
    },
    {
      "constant": false,
      "inputs": [
        {
          "internalType": "address",
          "name": "executor",
          "type": "address"
        },
        {
          "internalType": "string",
          "name": "hash",
          "type": "string"
        }
      ],
      "name": "propose",
      "outputs": [],
      "payable": false,
      "stateMutability": "nonpayable",
      "type": "function"
    },
    {
      "constant": false,
      "inputs": [
        {
          "internalType": "uint256",
          "name": "id",
          "type": "uint256"
        }
      ],
      "name": "execute",
      "outputs": [],
      "payable": false,
      "stateMutability": "nonpayable",
      "type": "function"
    },
    {
      "constant": true,
      "inputs": [
        {
          "internalType": "uint256",
          "name": "id",
          "type": "uint256"
        }
      ],
      "name": "getStats",
      "outputs": [
        {
          "internalType": "uint256",
          "name": "_for",
          "type": "uint256"
        },
        {
          "internalType": "uint256",
          "name": "_against",
          "type": "uint256"
        },
        {
          "internalType": "uint256",
          "name": "_quorum",
          "type": "uint256"
        }
      ],
      "payable": false,
      "stateMutability": "view",
      "type": "function"
    },
    {
      "constant": false,
      "inputs": [
        {
          "internalType": "uint256",
          "name": "id",
          "type": "uint256"
        }
      ],
      "name": "tallyVotes",
      "outputs": [],
      "payable": false,
      "stateMutability": "nonpayable",
      "type": "function"
    },
    {
      "constant": true,
      "inputs": [
        {
          "internalType": "address",
          "name": "voter",
          "type": "address"
        }
      ],
      "name": "votesOf",
      "outputs": [
        {
          "internalType": "uint256",
          "name": "",
          "type": "uint256"
        }
      ],
      "payable": false,
      "stateMutability": "view",
      "type": "function"
    },
    {
      "constant": false,
      "inputs": [],
      "name": "register",
      "outputs": [],
      "payable": false,
      "stateMutability": "nonpayable",
      "type": "function"
    },
    {
      "constant": false,
      "inputs": [],
      "name": "revoke",
      "outputs": [],
      "payable": false,
      "stateMutability": "nonpayable",
      "type": "function"
    },
    {
      "constant": false,
      "inputs": [
        {
          "internalType": "uint256",
          "name": "id",
          "type": "uint256"
        }
      ],
      "name": "voteFor",
      "outputs": [],
      "payable": false,
      "stateMutability": "nonpayable",
      "type": "function"
    },
    {
      "constant": false,
      "inputs": [
        {
          "internalType": "uint256",
          "name": "id",
          "type": "uint256"
        }
      ],
      "name": "voteAgainst",
      "outputs": [],
      "payable": false,
      "stateMutability": "nonpayable",
      "type": "function"
    },
    {
      "constant": true,
      "inputs": [],
      "name": "lastTimeRewardApplicable",
      "outputs": [
        {
          "internalType": "uint256",
          "name": "",
          "type": "uint256"
        }
      ],
      "payable": false,
      "stateMutability": "view",
      "type": "function"
    },
    {
      "constant": true,
      "inputs": [],
      "name": "rewardPerToken",
      "outputs": [
        {
          "internalType": "uint256",
          "name": "",
          "type": "uint256"
        }
      ],
      "payable": false,
      "stateMutability": "view",
      "type": "function"
    },
    {
      "constant": true,
      "inputs": [
        {
          "internalType": "address",
          "name": "account",
          "type": "address"
        }
      ],
      "name": "earned",
      "outputs": [
        {
          "internalType": "uint256",
          "name": "",
          "type": "uint256"
        }
      ],
      "payable": false,
      "stateMutability": "view",
      "type": "function"
    },
    {
      "constant": false,
      "inputs": [
        {
          "internalType": "uint256",
          "name": "amount",
          "type": "uint256"
        }
      ],
      "name": "stake",
      "outputs": [],
      "payable": false,
      "stateMutability": "nonpayable",
      "type": "function"
    },
    {
      "constant": false,
      "inputs": [
        {
          "internalType": "uint256",
          "name": "amount",
          "type": "uint256"
        }
      ],
      "name": "withdraw",
      "outputs": [],
      "payable": false,
      "stateMutability": "nonpayable",
      "type": "function"
    },
    {
      "constant": false,
      "inputs": [],
      "name": "exit",
      "outputs": [],
      "payable": false,
      "stateMutability": "nonpayable",
      "type": "function"
    },
    {
      "constant": false,
      "inputs": [],
      "name": "getReward",
      "outputs": [],
      "payable": false,
      "stateMutability": "nonpayable",
      "type": "function"
    },
    {
      "constant": false,
      "inputs": [
        {
          "internalType": "uint256",
          "name": "reward",
          "type": "uint256"
        }
      ],
      "name": "notifyRewardAmount",
      "outputs": [],
      "payable": false,
      "stateMutability": "nonpayable",
      "type": "function"
    }
  ],
  "bytecode": "0x60806040526000600560146101000a81548160ff021916908315150217905550614380600955614380600a556000600b556107d0600c556001600d60006101000a81548160ff021916908315150217905550600060115560006012553480156200006857600080fd5b50604051620052f8380380620052f8833981810160405260608110156200008e57600080fd5b8101908080519060200190929190805190602001909291908051906020019092919050505082600073ffffffffffffffffffffffffffffffffffffffff168173ffffffffffffffffffffffffffffffffffffffff1614156200013c576040517f08c379a00000000000000000000000000000000000000000000000000000000081526004018080602001828103825260428152602001806200526e6042913960600191505060405180910390fd5b806000806101000a81548173ffffffffffffffffffffffffffffffffffffffff021916908373ffffffffffffffffffffffffffffffffffffffff1602179055505060006200018f6200035260201b60201c565b905080600360006101000a81548173ffffffffffffffffffffffffffffffffffffffff021916908373ffffffffffffffffffffffffffffffffffffffff1602179055508073ffffffffffffffffffffffffffffffffffffffff16600073ffffffffffffffffffffffffffffffffffffffff167f8be0079c531659141344cd1fd0a4f28419497f9722a3daafe3b4186f6b6457e060405160405180910390a350600073ffffffffffffffffffffffffffffffffffffffff168273ffffffffffffffffffffffffffffffffffffffff161415620002b6576040517f08c379a0000000000000000000000000000000000000000000000000000000008152600401808060200182810382526048815260200180620052b06048913960600191505060405180910390fd5b81600560006101000a81548173ffffffffffffffffffffffffffffffffffffffff021916908373ffffffffffffffffffffffffffffffffffffffff16021790555033600d60016101000a81548173ffffffffffffffffffffffffffffffffffffffff021916908373ffffffffffffffffffffffffffffffffffffffff16021790555062000349816200035a60201b60201c565b50505062000409565b600033905090565b60011515600d60009054906101000a900460ff16151514620003e4576040517f08c379a00000000000000000000000000000000000000000000000000000000081526004018080602001828103825260078152602001807f21636f6e6669670000000000000000000000000000000000000000000000000081525060200191505060405180910390fd5b6000600d60006101000a81548160ff0219169083151502179055508060088190555050565b614e5580620004196000396000f3fe608060405234801561001057600080fd5b50600436106103415760003560e01c80637b303965116101b8578063d3e1574711610104578063ebe2b12b116100a2578063f7c618c11161007c578063f7c618c114610e97578063f83d08ba14610ee1578063fe0d94c114610eff578063fe4b84df14610f2d57610341565b8063ebe2b12b14610e17578063ef78d4fd14610e35578063f2fde38b14610e5357610341565b8063da35c664116100de578063da35c66414610d83578063df136d6514610da1578063e9fad8ee14610dbf578063eb9253c014610dc957610341565b8063d3e1574714610c22578063d6f0948c14610c50578063d8bff5a514610d2b57610341565b8063a3ec138d11610171578063b6549f751161014b578063b6549f7514610bae578063c1ba4e5914610bb8578063c8f33c9114610be6578063cd3daf9d14610c0457610341565b8063a3ec138d14610ae0578063a694fc3a14610b3c578063ab033ea914610b6a57610341565b80637b3039651461098057806380faa57d146109d057806386a50535146109ee5780638b87634714610a1c5780638da5cb5b14610a745780638f32d59b14610abe57610341565b80633c6b16ab116102925780635fcbd28511610230578063750e443a1161020a578063750e443a146108ba57806379502c55146108e857806379ec5d3a1461090a5780637b0a47ee1461096257610341565b80635fcbd2851461080e57806370a0823114610858578063715018a6146108b057610341565b80634e27e9161161026c5780634e27e9161461071e57806352d6804d146107765780635aa6e675146107945780635c0aeb0e146107de57610341565b80633c6b16ab146106b85780633d18b912146106e65780634d318b0e146106f057610341565b80630f41e0d2116102ff5780631aa3a008116102d95780631aa3a008146106345780631be052891461063e5780632e1a7d4d1461065c5780633209e9e61461068a57610341565b80630f41e0d2146105d65780631703a018146105f857806318160ddd1461061657610341565b80628cc26214610346578063013cf08b1461039e5780630700037d146104ee5780630d15fd77146105465780630d68b761146105645780630f3a9f65146105a8575b600080fd5b6103886004803603602081101561035c57600080fd5b81019080803573ffffffffffffffffffffffffffffffffffffffff169060200190929190505050610f5b565b6040518082815260200191505060405180910390f35b6103ca600480360360208110156103b457600080fd5b8101908080359060200190929190505050611042565b604051808d81526020018c73ffffffffffffffffffffffffffffffffffffffff1673ffffffffffffffffffffffffffffffffffffffff1681526020018b81526020018a81526020018981526020018881526020018773ffffffffffffffffffffffffffffffffffffffff1673ffffffffffffffffffffffffffffffffffffffff1681526020018060200186815260200185815260200184815260200183151515158152602001828103825287818151815260200191508051906020019080838360005b838110156104a857808201518184015260208101905061048d565b50505050905090810190601f1680156104d55780820380516001836020036101000a031916815260200191505b509d505050505050505050505050505060405180910390f35b6105306004803603602081101561050457600080fd5b81019080803573ffffffffffffffffffffffffffffffffffffffff169060200190929190505050611187565b6040518082815260200191505060405180910390f35b61054e61119f565b6040518082815260200191505060405180910390f35b6105a66004803603602081101561057a57600080fd5b81019080803573ffffffffffffffffffffffffffffffffffffffff1690602001909291905050506111a5565b005b6105d4600480360360208110156105be57600080fd5b8101908080359060200190929190505050611263565b005b6105de611330565b604051808215151515815260200191505060405180910390f35b610600611343565b6040518082815260200191505060405180910390f35b61061e611349565b6040518082815260200191505060405180910390f35b61063c611353565b005b6106466115cd565b6040518082815260200191505060405180910390f35b6106886004803603602081101561067257600080fd5b81019080803590602001909291905050506115d4565b005b6106b6600480360360208110156106a057600080fd5b8101908080359060200190929190505050611964565b005b6106e4600480360360208110156106ce57600080fd5b8101908080359060200190929190505050611a31565b005b6106ee611cae565b005b61071c6004803603602081101561070657600080fd5b8101908080359060200190929190505050611f5e565b005b6107606004803603602081101561073457600080fd5b81019080803573ffffffffffffffffffffffffffffffffffffffff169060200190929190505050612155565b6040518082815260200191505060405180910390f35b61077e61216d565b6040518082815260200191505060405180910390f35b61079c612173565b604051808273ffffffffffffffffffffffffffffffffffffffff1673ffffffffffffffffffffffffffffffffffffffff16815260200191505060405180910390f35b61080c600480360360208110156107f457600080fd5b81019080803515159060200190929190505050612199565b005b610816612279565b604051808273ffffffffffffffffffffffffffffffffffffffff1673ffffffffffffffffffffffffffffffffffffffff16815260200191505060405180910390f35b61089a6004803603602081101561086e57600080fd5b81019080803573ffffffffffffffffffffffffffffffffffffffff16906020019092919050505061229e565b6040518082815260200191505060405180910390f35b6108b86122e7565b005b6108e6600480360360208110156108d057600080fd5b8101908080359060200190929190505050612422565b005b6108f06128a8565b604051808215151515815260200191505060405180910390f35b61094c6004803603602081101561092057600080fd5b81019080803573ffffffffffffffffffffffffffffffffffffffff1690602001909291905050506128bb565b6040518082815260200191505060405180910390f35b61096a612904565b6040518082815260200191505060405180910390f35b6109ac6004803603602081101561099657600080fd5b810190808035906020019092919050505061290a565b60405180848152602001838152602001828152602001935050505060405180910390f35b6109d86129f1565b6040518082815260200191505060405180910390f35b610a1a60048036036020811015610a0457600080fd5b8101908080359060200190929190505050612a04565b005b610a5e60048036036020811015610a3257600080fd5b81019080803573ffffffffffffffffffffffffffffffffffffffff169060200190929190505050612e8a565b6040518082815260200191505060405180910390f35b610a7c612ea2565b604051808273ffffffffffffffffffffffffffffffffffffffff1673ffffffffffffffffffffffffffffffffffffffff16815260200191505060405180910390f35b610ac6612ecc565b604051808215151515815260200191505060405180910390f35b610b2260048036036020811015610af657600080fd5b81019080803573ffffffffffffffffffffffffffffffffffffffff169060200190929190505050612f2b565b604051808215151515815260200191505060405180910390f35b610b6860048036036020811015610b5257600080fd5b8101908080359060200190929190505050612f4b565b005b610bac60048036036020811015610b8057600080fd5b81019080803573ffffffffffffffffffffffffffffffffffffffff16906020019092919050505061320a565b005b610bb6613311565b005b610be460048036036020811015610bce57600080fd5b81019080803590602001909291905050506135da565b005b610bee6136a7565b6040518082815260200191505060405180910390f35b610c0c6136ad565b6040518082815260200191505060405180910390f35b610c4e60048036036020811015610c3857600080fd5b8101908080359060200190929190505050613745565b005b610d2960048036036040811015610c6657600080fd5b81019080803573ffffffffffffffffffffffffffffffffffffffff16906020019092919080359060200190640100000000811115610ca357600080fd5b820183602082011115610cb557600080fd5b80359060200191846001830284011164010000000083111715610cd757600080fd5b91908080601f016020809104026020016040519081016040528093929190818152602001838380828437600081840152601f19601f820116905080830192505050505050509192919290505050613812565b005b610d6d60048036036020811015610d4157600080fd5b81019080803573ffffffffffffffffffffffffffffffffffffffff169060200190929190505050613b84565b6040518082815260200191505060405180910390f35b610d8b613b9c565b6040518082815260200191505060405180910390f35b610da9613ba2565b6040518082815260200191505060405180910390f35b610dc7613ba8565b005b610e1560048036036040811015610ddf57600080fd5b81019080803573ffffffffffffffffffffffffffffffffffffffff16906020019092919080359060200190929190505050613bc3565b005b610e1f613e5e565b6040518082815260200191505060405180910390f35b610e3d613e64565b6040518082815260200191505060405180910390f35b610e9560048036036020811015610e6957600080fd5b81019080803573ffffffffffffffffffffffffffffffffffffffff169060200190929190505050613e6a565b005b610e9f613ef0565b604051808273ffffffffffffffffffffffffffffffffffffffff1673ffffffffffffffffffffffffffffffffffffffff16815260200191505060405180910390f35b610ee9613f16565b6040518082815260200191505060405180910390f35b610f2b60048036036020811015610f1557600080fd5b8101908080359060200190929190505050613f1c565b005b610f5960048036036020811015610f4357600080fd5b810190808035906020019092919050505061413f565b005b600061103b601660008473ffffffffffffffffffffffffffffffffffffffff1673ffffffffffffffffffffffffffffffffffffffff1681526020019081526020016000205461102d670de0b6b3a764000061101f611008601560008973ffffffffffffffffffffffffffffffffffffffff1673ffffffffffffffffffffffffffffffffffffffff16815260200190815260200160002054610ffa6136ad565b6141ed90919063ffffffff16565b6110118861229e565b61423790919063ffffffff16565b6142bd90919063ffffffff16565b61430790919063ffffffff16565b9050919050565b60076020528060005260406000206000915090508060000154908060010160009054906101000a900473ffffffffffffffffffffffffffffffffffffffff16908060040154908060050154908060060154908060070154908060080160009054906101000a900473ffffffffffffffffffffffffffffffffffffffff1690806009018054600181600116156101000203166002900480601f0160208091040260200160405190810160405280929190818152602001828054600181600116156101000203166002900480156111585780601f1061112d57610100808354040283529160200191611158565b820191906000526020600020905b81548152906001019060200180831161113b57829003601f168201915b50505050509080600a01549080600b01549080600c01549080600d0160009054906101000a900460ff1690508c565b60166020528060005260406000206000915090505481565b600e5481565b6111ad612ecc565b61121f576040517f08c379a00000000000000000000000000000000000000000000000000000000081526004018080602001828103825260208152602001807f4f776e61626c653a2063616c6c6572206973206e6f7420746865206f776e657281525060200191505060405180910390fd5b80600460006101000a81548173ffffffffffffffffffffffffffffffffffffffff021916908373ffffffffffffffffffffffffffffffffffffffff16021790555050565b600d60019054906101000a900473ffffffffffffffffffffffffffffffffffffffff1673ffffffffffffffffffffffffffffffffffffffff163373ffffffffffffffffffffffffffffffffffffffff1614611326576040517f08c379a000000000000000000000000000000000000000000000000000000000815260040180806020018281038252600b8152602001807f21676f7665726e616e636500000000000000000000000000000000000000000081525060200191505060405180910390fd5b8060098190555050565b600560149054906101000a900460ff1681565b600c5481565b6000600154905090565b60001515601060003373ffffffffffffffffffffffffffffffffffffffff1673ffffffffffffffffffffffffffffffffffffffff16815260200190815260200160002060009054906101000a900460ff16151514611419576040517f08c379a00000000000000000000000000000000000000000000000000000000081526004018080602001828103825260058152602001807f766f74657200000000000000000000000000000000000000000000000000000081525060200191505060405180910390fd5b6001601060003373ffffffffffffffffffffffffffffffffffffffff1673ffffffffffffffffffffffffffffffffffffffff16815260200190815260200160002060006101000a81548160ff02191690831515021790555061147a3361229e565b600f60003373ffffffffffffffffffffffffffffffffffffffff1673ffffffffffffffffffffffffffffffffffffffff16815260200190815260200160002081905550611511600f60003373ffffffffffffffffffffffffffffffffffffffff1673ffffffffffffffffffffffffffffffffffffffff16815260200190815260200160002054600e5461430790919063ffffffff16565b600e819055507f42bd0b21218b5114f60361fe686fe499033f14f22cb728a08cf9df9b4e60f8cc33600f60003373ffffffffffffffffffffffffffffffffffffffff1673ffffffffffffffffffffffffffffffffffffffff16815260200190815260200160002054600e54604051808473ffffffffffffffffffffffffffffffffffffffff1673ffffffffffffffffffffffffffffffffffffffff168152602001838152602001828152602001935050505060405180910390a1565b62093a8081565b336115dd6136ad565b6014819055506115eb6129f1565b601381905550600073ffffffffffffffffffffffffffffffffffffffff168173ffffffffffffffffffffffffffffffffffffffff16146116b85761162e81610f5b565b601660008373ffffffffffffffffffffffffffffffffffffffff1673ffffffffffffffffffffffffffffffffffffffff16815260200190815260200160002081905550601454601560008373ffffffffffffffffffffffffffffffffffffffff1673ffffffffffffffffffffffffffffffffffffffff168152602001908152602001600020819055505b6000821161172e576040517f08c379a00000000000000000000000000000000000000000000000000000000081526004018080602001828103825260118152602001807f43616e6e6f74207769746864726177203000000000000000000000000000000081525060200191505060405180910390fd5b60011515601060003373ffffffffffffffffffffffffffffffffffffffff1673ffffffffffffffffffffffffffffffffffffffff16815260200190815260200160002060009054906101000a900460ff1615151415611838576117d982600f60003373ffffffffffffffffffffffffffffffffffffffff1673ffffffffffffffffffffffffffffffffffffffff168152602001908152602001600020546141ed90919063ffffffff16565b600f60003373ffffffffffffffffffffffffffffffffffffffff1673ffffffffffffffffffffffffffffffffffffffff1681526020019081526020016000208190555061183182600e546141ed90919063ffffffff16565b600e819055505b60001515600560149054906101000a900460ff16151514156119095743600660003373ffffffffffffffffffffffffffffffffffffffff1673ffffffffffffffffffffffffffffffffffffffff1681526020019081526020016000205410611908576040517f08c379a00000000000000000000000000000000000000000000000000000000081526004018080602001828103825260078152602001807f216c6f636b65640000000000000000000000000000000000000000000000000081525060200191505060405180910390fd5b5b6119128261438f565b3373ffffffffffffffffffffffffffffffffffffffff167f7084f5476618d8e60b11ef0d7d3f06914655adb8793e28ff7f018d4c76d505d5836040518082815260200191505060405180910390a25050565b600d60019054906101000a900473ffffffffffffffffffffffffffffffffffffffff1673ffffffffffffffffffffffffffffffffffffffff163373ffffffffffffffffffffffffffffffffffffffff1614611a27576040517f08c379a000000000000000000000000000000000000000000000000000000000815260040180806020018281038252600b8152602001807f21676f7665726e616e636500000000000000000000000000000000000000000081525060200191505060405180910390fd5b80600b8190555050565b600460009054906101000a900473ffffffffffffffffffffffffffffffffffffffff1673ffffffffffffffffffffffffffffffffffffffff16611a7261448e565b73ffffffffffffffffffffffffffffffffffffffff1614611ade576040517f08c379a0000000000000000000000000000000000000000000000000000000008152600401808060200182810382526021815260200180614dd66021913960400191505060405180910390fd5b6000611ae86136ad565b601481905550611af66129f1565b601381905550600073ffffffffffffffffffffffffffffffffffffffff168173ffffffffffffffffffffffffffffffffffffffff1614611bc357611b3981610f5b565b601660008373ffffffffffffffffffffffffffffffffffffffff1673ffffffffffffffffffffffffffffffffffffffff16815260200190815260200160002081905550601454601560008373ffffffffffffffffffffffffffffffffffffffff1673ffffffffffffffffffffffffffffffffffffffff168152602001908152602001600020819055505b6011544210611bed57611be262093a80836142bd90919063ffffffff16565b601281905550611c50565b6000611c04426011546141ed90919063ffffffff16565b90506000611c1d6012548361423790919063ffffffff16565b9050611c4762093a80611c39838761430790919063ffffffff16565b6142bd90919063ffffffff16565b60128190555050505b42601381905550611c6d62093a804261430790919063ffffffff16565b6011819055507fde88a922e0d3b88b24e9623efeb464919c6bf9f66857a65e2bfcf2ce87a9433d826040518082815260200191505060405180910390a15050565b33611cb76136ad565b601481905550611cc56129f1565b601381905550600073ffffffffffffffffffffffffffffffffffffffff168173ffffffffffffffffffffffffffffffffffffffff1614611d9257611d0881610f5b565b601660008373ffffffffffffffffffffffffffffffffffffffff1673ffffffffffffffffffffffffffffffffffffffff16815260200190815260200160002081905550601454601560008373ffffffffffffffffffffffffffffffffffffffff1673ffffffffffffffffffffffffffffffffffffffff168152602001908152602001600020819055505b60001515600560149054906101000a900460ff1615151415611e635743600660003373ffffffffffffffffffffffffffffffffffffffff1673ffffffffffffffffffffffffffffffffffffffff1681526020019081526020016000205411611e62576040517f08c379a00000000000000000000000000000000000000000000000000000000081526004018080602001828103825260068152602001807f21766f746564000000000000000000000000000000000000000000000000000081525060200191505060405180910390fd5b5b6000611e6e33610f5b565b90506000811115611f5a576000601660003373ffffffffffffffffffffffffffffffffffffffff1673ffffffffffffffffffffffffffffffffffffffff16815260200190815260200160002081905550611f0b3382600560009054906101000a900473ffffffffffffffffffffffffffffffffffffffff1673ffffffffffffffffffffffffffffffffffffffff166144969092919063ffffffff16565b3373ffffffffffffffffffffffffffffffffffffffff167fe2403640ba68fed3a2f88b7557551d1993f84b99bb10ff833f0cf8db0c5e0486826040518082815260200191505060405180910390a25b5050565b6001151560076000838152602001908152602001600020600d0160009054906101000a900460ff16151514611ffb576040517f08c379a00000000000000000000000000000000000000000000000000000000081526004018080602001828103825260058152602001807f216f70656e00000000000000000000000000000000000000000000000000000081525060200191505060405180910390fd5b43600760008381526020019081526020016000206007015410612086576040517f08c379a00000000000000000000000000000000000000000000000000000000081526004018080602001828103825260048152602001807f21656e640000000000000000000000000000000000000000000000000000000081525060200191505060405180910390fd5b6000806120928361290a565b5091509150600080905060076000858152602001908152602001600020600c015460076000868152602001908152602001600020600b0154106120d457600190505b600060076000868152602001908152602001600020600d0160006101000a81548160ff021916908315150217905550837f66ab4d2a1f6db1c01d1d46ab61a9c333b5a4de5e75cc7a68e1495b4badbd009b8484846040518084815260200183815260200182151515158152602001935050505060405180910390a250505050565b60066020528060005260406000206000915090505481565b600b5481565b600d60019054906101000a900473ffffffffffffffffffffffffffffffffffffffff1681565b600d60019054906101000a900473ffffffffffffffffffffffffffffffffffffffff1673ffffffffffffffffffffffffffffffffffffffff163373ffffffffffffffffffffffffffffffffffffffff161461225c576040517f08c379a000000000000000000000000000000000000000000000000000000000815260040180806020018281038252600b8152602001807f21676f7665726e616e636500000000000000000000000000000000000000000081525060200191505060405180910390fd5b80600560146101000a81548160ff02191690831515021790555050565b6000809054906101000a900473ffffffffffffffffffffffffffffffffffffffff1681565b6000600260008373ffffffffffffffffffffffffffffffffffffffff1673ffffffffffffffffffffffffffffffffffffffff168152602001908152602001600020549050919050565b6122ef612ecc565b612361576040517f08c379a00000000000000000000000000000000000000000000000000000000081526004018080602001828103825260208152602001807f4f776e61626c653a2063616c6c6572206973206e6f7420746865206f776e657281525060200191505060405180910390fd5b600073ffffffffffffffffffffffffffffffffffffffff16600360009054906101000a900473ffffffffffffffffffffffffffffffffffffffff1673ffffffffffffffffffffffffffffffffffffffff167f8be0079c531659141344cd1fd0a4f28419497f9722a3daafe3b4186f6b6457e060405160405180910390a36000600360006101000a81548173ffffffffffffffffffffffffffffffffffffffff021916908373ffffffffffffffffffffffffffffffffffffffff160217905550565b436007600083815260200190815260200160002060060154106124ad576040517f08c379a00000000000000000000000000000000000000000000000000000000081526004018080602001828103825260068152602001807f3c7374617274000000000000000000000000000000000000000000000000000081525060200191505060405180910390fd5b43600760008381526020019081526020016000206007015411612538576040517f08c379a00000000000000000000000000000000000000000000000000000000081526004018080602001828103825260048152602001807f3e656e640000000000000000000000000000000000000000000000000000000081525060200191505060405180910390fd5b60006007600083815260200190815260200160002060020160003373ffffffffffffffffffffffffffffffffffffffff1673ffffffffffffffffffffffffffffffffffffffff1681526020019081526020016000205490506000811115612636576125c28160076000858152602001908152602001600020600401546141ed90919063ffffffff16565b600760008481526020019081526020016000206004018190555060006007600084815260200190815260200160002060020160003373ffffffffffffffffffffffffffffffffffffffff1673ffffffffffffffffffffffffffffffffffffffff168152602001908152602001600020819055505b60006126a66007600085815260200190815260200160002060030160003373ffffffffffffffffffffffffffffffffffffffff1673ffffffffffffffffffffffffffffffffffffffff16815260200190815260200160002054612698336128bb565b6141ed90919063ffffffff16565b90506126d181600760008681526020019081526020016000206005015461430790919063ffffffff16565b60076000858152602001908152602001600020600501819055506126f4336128bb565b6007600085815260200190815260200160002060030160003373ffffffffffffffffffffffffffffffffffffffff1673ffffffffffffffffffffffffffffffffffffffff16815260200190815260200160002081905550600e5460076000858152602001908152602001600020600a018190555060006127a96007600086815260200190815260200160002060050154600760008781526020019081526020016000206004015461430790919063ffffffff16565b90506127d4600e546127c66127108461423790919063ffffffff16565b6142bd90919063ffffffff16565b60076000868152602001908152602001600020600b018190555061280343600a5461430790919063ffffffff16565b600660003373ffffffffffffffffffffffffffffffffffffffff1673ffffffffffffffffffffffffffffffffffffffff168152602001908152602001600020819055503373ffffffffffffffffffffffffffffffffffffffff16847f88d35328232823f54954b6627e9f732371656f6daa40cb1b01b27dc7875a7b4760008560405180831515151581526020018281526020019250505060405180910390a350505050565b600d60009054906101000a900460ff1681565b6000600f60008373ffffffffffffffffffffffffffffffffffffffff1673ffffffffffffffffffffffffffffffffffffffff168152602001908152602001600020549050919050565b60125481565b600080600060076000858152602001908152602001600020600401549250600760008581526020019081526020016000206005015491506000612956838561430790919063ffffffff16565b905061297f816129716127108761423790919063ffffffff16565b6142bd90919063ffffffff16565b93506129a88161299a6127108661423790919063ffffffff16565b6142bd90919063ffffffff16565b92506129e760076000878152602001908152602001600020600a01546129d96127108461423790919063ffffffff16565b6142bd90919063ffffffff16565b9150509193909250565b60006129ff42601154614567565b905090565b43600760008381526020019081526020016000206006015410612a8f576040517f08c379a00000000000000000000000000000000000000000000000000000000081526004018080602001828103825260068152602001807f3c7374617274000000000000000000000000000000000000000000000000000081525060200191505060405180910390fd5b43600760008381526020019081526020016000206007015411612b1a576040517f08c379a00000000000000000000000000000000000000000000000000000000081526004018080602001828103825260048152602001807f3e656e640000000000000000000000000000000000000000000000000000000081525060200191505060405180910390fd5b60006007600083815260200190815260200160002060030160003373ffffffffffffffffffffffffffffffffffffffff1673ffffffffffffffffffffffffffffffffffffffff1681526020019081526020016000205490506000811115612c1857612ba48160076000858152602001908152602001600020600501546141ed90919063ffffffff16565b600760008481526020019081526020016000206005018190555060006007600084815260200190815260200160002060030160003373ffffffffffffffffffffffffffffffffffffffff1673ffffffffffffffffffffffffffffffffffffffff168152602001908152602001600020819055505b6000612c886007600085815260200190815260200160002060020160003373ffffffffffffffffffffffffffffffffffffffff1673ffffffffffffffffffffffffffffffffffffffff16815260200190815260200160002054612c7a336128bb565b6141ed90919063ffffffff16565b9050612cb381600760008681526020019081526020016000206004015461430790919063ffffffff16565b6007600085815260200190815260200160002060040181905550612cd6336128bb565b6007600085815260200190815260200160002060020160003373ffffffffffffffffffffffffffffffffffffffff1673ffffffffffffffffffffffffffffffffffffffff16815260200190815260200160002081905550600e5460076000858152602001908152602001600020600a01819055506000612d8b6007600086815260200190815260200160002060050154600760008781526020019081526020016000206004015461430790919063ffffffff16565b9050612db6600e54612da86127108461423790919063ffffffff16565b6142bd90919063ffffffff16565b60076000868152602001908152602001600020600b0181905550612de543600a5461430790919063ffffffff16565b600660003373ffffffffffffffffffffffffffffffffffffffff1673ffffffffffffffffffffffffffffffffffffffff168152602001908152602001600020819055503373ffffffffffffffffffffffffffffffffffffffff16847f88d35328232823f54954b6627e9f732371656f6daa40cb1b01b27dc7875a7b4760018560405180831515151581526020018281526020019250505060405180910390a350505050565b60156020528060005260406000206000915090505481565b6000600360009054906101000a900473ffffffffffffffffffffffffffffffffffffffff16905090565b6000600360009054906101000a900473ffffffffffffffffffffffffffffffffffffffff1673ffffffffffffffffffffffffffffffffffffffff16612f0f61448e565b73ffffffffffffffffffffffffffffffffffffffff1614905090565b60106020528060005260406000206000915054906101000a900460ff1681565b33612f546136ad565b601481905550612f626129f1565b601381905550600073ffffffffffffffffffffffffffffffffffffffff168173ffffffffffffffffffffffffffffffffffffffff161461302f57612fa581610f5b565b601660008373ffffffffffffffffffffffffffffffffffffffff1673ffffffffffffffffffffffffffffffffffffffff16815260200190815260200160002081905550601454601560008373ffffffffffffffffffffffffffffffffffffffff1673ffffffffffffffffffffffffffffffffffffffff168152602001908152602001600020819055505b600082116130a5576040517f08c379a000000000000000000000000000000000000000000000000000000000815260040180806020018281038252600e8152602001807f43616e6e6f74207374616b65203000000000000000000000000000000000000081525060200191505060405180910390fd5b60011515601060003373ffffffffffffffffffffffffffffffffffffffff1673ffffffffffffffffffffffffffffffffffffffff16815260200190815260200160002060009054906101000a900460ff16151514156131af5761315082600f60003373ffffffffffffffffffffffffffffffffffffffff1673ffffffffffffffffffffffffffffffffffffffff1681526020019081526020016000205461430790919063ffffffff16565b600f60003373ffffffffffffffffffffffffffffffffffffffff1673ffffffffffffffffffffffffffffffffffffffff168152602001908152602001600020819055506131a882600e5461430790919063ffffffff16565b600e819055505b6131b882614580565b3373ffffffffffffffffffffffffffffffffffffffff167f9e71bc8eea02a63969f509818f2dafb9254532904319f9dbda79b67bd34a5f3d836040518082815260200191505060405180910390a25050565b600d60019054906101000a900473ffffffffffffffffffffffffffffffffffffffff1673ffffffffffffffffffffffffffffffffffffffff163373ffffffffffffffffffffffffffffffffffffffff16146132cd576040517f08c379a000000000000000000000000000000000000000000000000000000000815260040180806020018281038252600b8152602001807f21676f7665726e616e636500000000000000000000000000000000000000000081525060200191505060405180910390fd5b80600d60016101000a81548173ffffffffffffffffffffffffffffffffffffffff021916908373ffffffffffffffffffffffffffffffffffffffff16021790555050565b60011515601060003373ffffffffffffffffffffffffffffffffffffffff1673ffffffffffffffffffffffffffffffffffffffff16815260200190815260200160002060009054906101000a900460ff161515146133d7576040517f08c379a00000000000000000000000000000000000000000000000000000000081526004018080602001828103825260068152602001807f21766f746572000000000000000000000000000000000000000000000000000081525060200191505060405180910390fd5b6000601060003373ffffffffffffffffffffffffffffffffffffffff1673ffffffffffffffffffffffffffffffffffffffff16815260200190815260200160002060006101000a81548160ff021916908315150217905550600f60003373ffffffffffffffffffffffffffffffffffffffff1673ffffffffffffffffffffffffffffffffffffffff16815260200190815260200160002054600e541015613485576000600e819055506134e0565b6134d9600f60003373ffffffffffffffffffffffffffffffffffffffff1673ffffffffffffffffffffffffffffffffffffffff16815260200190815260200160002054600e546141ed90919063ffffffff16565b600e819055505b7e330fa0724b41c0d187cfad0aa7ff5fa2ff7e742995886f55fda6f5909914b833600f60003373ffffffffffffffffffffffffffffffffffffffff1673ffffffffffffffffffffffffffffffffffffffff16815260200190815260200160002054600e54604051808473ffffffffffffffffffffffffffffffffffffffff1673ffffffffffffffffffffffffffffffffffffffff168152602001838152602001828152602001935050505060405180910390a16000600f60003373ffffffffffffffffffffffffffffffffffffffff1673ffffffffffffffffffffffffffffffffffffffff16815260200190815260200160002081905550565b600d60019054906101000a900473ffffffffffffffffffffffffffffffffffffffff1673ffffffffffffffffffffffffffffffffffffffff163373ffffffffffffffffffffffffffffffffffffffff161461369d576040517f08c379a000000000000000000000000000000000000000000000000000000000815260040180806020018281038252600b8152602001807f21676f7665726e616e636500000000000000000000000000000000000000000081525060200191505060405180910390fd5b80600c8190555050565b60135481565b6000806136b8611349565b14156136c8576014549050613742565b61373f61372e6136d6611349565b613720670de0b6b3a76400006137126012546137046013546136f66129f1565b6141ed90919063ffffffff16565b61423790919063ffffffff16565b61423790919063ffffffff16565b6142bd90919063ffffffff16565b60145461430790919063ffffffff16565b90505b90565b600d60019054906101000a900473ffffffffffffffffffffffffffffffffffffffff1673ffffffffffffffffffffffffffffffffffffffff163373ffffffffffffffffffffffffffffffffffffffff1614613808576040517f08c379a000000000000000000000000000000000000000000000000000000000815260040180806020018281038252600b8152602001807f21676f7665726e616e636500000000000000000000000000000000000000000081525060200191505060405180910390fd5b80600a8190555050565b600b5461381e336128bb565b1015613892576040517f08c379a00000000000000000000000000000000000000000000000000000000081526004018080602001828103825260088152602001807f3c6d696e696d756d00000000000000000000000000000000000000000000000081525060200191505060405180910390fd5b60405180610180016040528060085481526020013373ffffffffffffffffffffffffffffffffffffffff16815260200160008152602001600081526020014381526020016138eb4360095461430790919063ffffffff16565b81526020018373ffffffffffffffffffffffffffffffffffffffff168152602001828152602001600e54815260200160008152602001600c5481526020016001151581525060076000600860008154809291906001019190505581526020019081526020016000206000820151816000015560208201518160010160006101000a81548173ffffffffffffffffffffffffffffffffffffffff021916908373ffffffffffffffffffffffffffffffffffffffff16021790555060408201518160040155606082015181600501556080820151816006015560a0820151816007015560c08201518160080160006101000a81548173ffffffffffffffffffffffffffffffffffffffff021916908373ffffffffffffffffffffffffffffffffffffffff16021790555060e0820151816009019080519060200190613a2f929190614ce9565b5061010082015181600a015561012082015181600b015561014082015181600c015561016082015181600d0160006101000a81548160ff0219169083151502179055509050507ff3aa81c2323a935a3e72c018c519b8d8b432eeebaa15cbbe5c8305f0f9df6f4d600854334360095486604051808681526020018573ffffffffffffffffffffffffffffffffffffffff1673ffffffffffffffffffffffffffffffffffffffff1681526020018481526020018381526020018273ffffffffffffffffffffffffffffffffffffffff1673ffffffffffffffffffffffffffffffffffffffff1681526020019550505050505060405180910390a1613b3d43600a5461430790919063ffffffff16565b600660003373ffffffffffffffffffffffffffffffffffffffff1673ffffffffffffffffffffffffffffffffffffffff168152602001908152602001600020819055505050565b600f6020528060005260406000206000915090505481565b60085481565b60145481565b613bb9613bb43361229e565b6115d4565b613bc1611cae565b565b600d60019054906101000a900473ffffffffffffffffffffffffffffffffffffffff1673ffffffffffffffffffffffffffffffffffffffff163373ffffffffffffffffffffffffffffffffffffffff1614613c86576040517f08c379a000000000000000000000000000000000000000000000000000000000815260040180806020018281038252600b8152602001807f21676f7665726e616e636500000000000000000000000000000000000000000081525060200191505060405180910390fd5b6000809054906101000a900473ffffffffffffffffffffffffffffffffffffffff1673ffffffffffffffffffffffffffffffffffffffff168273ffffffffffffffffffffffffffffffffffffffff161415613d49576040517f08c379a00000000000000000000000000000000000000000000000000000000081526004018080602001828103825260078152602001807f6c70546f6b656e0000000000000000000000000000000000000000000000000081525060200191505060405180910390fd5b600560009054906101000a900473ffffffffffffffffffffffffffffffffffffffff1673ffffffffffffffffffffffffffffffffffffffff168273ffffffffffffffffffffffffffffffffffffffff161415613e0d576040517f08c379a000000000000000000000000000000000000000000000000000000000815260040180806020018281038252600b8152602001807f726577617264546f6b656e00000000000000000000000000000000000000000081525060200191505060405180910390fd5b613e5a600d60019054906101000a900473ffffffffffffffffffffffffffffffffffffffff16828473ffffffffffffffffffffffffffffffffffffffff166144969092919063ffffffff16565b5050565b60115481565b60095481565b613e72612ecc565b613ee4576040517f08c379a00000000000000000000000000000000000000000000000000000000081526004018080602001828103825260208152602001807f4f776e61626c653a2063616c6c6572206973206e6f7420746865206f776e657281525060200191505060405180910390fd5b613eed81614681565b50565b600560009054906101000a900473ffffffffffffffffffffffffffffffffffffffff1681565b600a5481565b6000806000613f2a8461290a565b9250925092508060076000868152602001908152602001600020600c015410613fbb576040517f08c379a00000000000000000000000000000000000000000000000000000000081526004018080602001828103825260078152602001807f2171756f72756d0000000000000000000000000000000000000000000000000081525060200191505060405180910390fd5b43600760008681526020019081526020016000206007015410614046576040517f08c379a00000000000000000000000000000000000000000000000000000000081526004018080602001828103825260048152602001807f21656e640000000000000000000000000000000000000000000000000000000081525060200191505060405180910390fd5b6001151560076000868152602001908152602001600020600d0160009054906101000a900460ff16151514156140805761407f84611f5e565b5b6007600085815260200190815260200160002060080160009054906101000a900473ffffffffffffffffffffffffffffffffffffffff1673ffffffffffffffffffffffffffffffffffffffff1663c0137f7a858585856040518563ffffffff1660e01b815260040180858152602001848152602001838152602001828152602001945050505050600060405180830381600087803b15801561412157600080fd5b505af1158015614135573d6000803e3d6000fd5b5050505050505050565b60011515600d60009054906101000a900460ff161515146141c8576040517f08c379a00000000000000000000000000000000000000000000000000000000081526004018080602001828103825260078152602001807f21636f6e6669670000000000000000000000000000000000000000000000000081525060200191505060405180910390fd5b6000600d60006101000a81548160ff0219169083151502179055508060088190555050565b600061422f83836040518060400160405280601e81526020017f536166654d6174683a207375627472616374696f6e206f766572666c6f7700008152506147c7565b905092915050565b60008083141561424a57600090506142b7565b600082840290508284828161425b57fe5b04146142b2576040517f08c379a0000000000000000000000000000000000000000000000000000000008152600401808060200182810382526021815260200180614db56021913960400191505060405180910390fd5b809150505b92915050565b60006142ff83836040518060400160405280601a81526020017f536166654d6174683a206469766973696f6e206279207a65726f000000000000815250614887565b905092915050565b600080828401905083811015614385576040517f08c379a000000000000000000000000000000000000000000000000000000000815260040180806020018281038252601b8152602001807f536166654d6174683a206164646974696f6e206f766572666c6f77000000000081525060200191505060405180910390fd5b8091505092915050565b6143a4816001546141ed90919063ffffffff16565b6001819055506143fc81600260003373ffffffffffffffffffffffffffffffffffffffff1673ffffffffffffffffffffffffffffffffffffffff168152602001908152602001600020546141ed90919063ffffffff16565b600260003373ffffffffffffffffffffffffffffffffffffffff1673ffffffffffffffffffffffffffffffffffffffff1681526020019081526020016000208190555061448b33826000809054906101000a900473ffffffffffffffffffffffffffffffffffffffff1673ffffffffffffffffffffffffffffffffffffffff166144969092919063ffffffff16565b50565b600033905090565b614562838473ffffffffffffffffffffffffffffffffffffffff1663a9059cbb905060e01b8484604051602401808373ffffffffffffffffffffffffffffffffffffffff1673ffffffffffffffffffffffffffffffffffffffff16815260200182815260200192505050604051602081830303815290604052907bffffffffffffffffffffffffffffffffffffffffffffffffffffffff19166020820180517bffffffffffffffffffffffffffffffffffffffffffffffffffffffff838183161783525050505061494d565b505050565b60008183106145765781614578565b825b905092915050565b6145958160015461430790919063ffffffff16565b6001819055506145ed81600260003373ffffffffffffffffffffffffffffffffffffffff1673ffffffffffffffffffffffffffffffffffffffff1681526020019081526020016000205461430790919063ffffffff16565b600260003373ffffffffffffffffffffffffffffffffffffffff1673ffffffffffffffffffffffffffffffffffffffff1681526020019081526020016000208190555061467e3330836000809054906101000a900473ffffffffffffffffffffffffffffffffffffffff1673ffffffffffffffffffffffffffffffffffffffff16614b98909392919063ffffffff16565b50565b600073ffffffffffffffffffffffffffffffffffffffff168173ffffffffffffffffffffffffffffffffffffffff161415614707576040517f08c379a0000000000000000000000000000000000000000000000000000000008152600401808060200182810382526026815260200180614d8f6026913960400191505060405180910390fd5b8073ffffffffffffffffffffffffffffffffffffffff16600360009054906101000a900473ffffffffffffffffffffffffffffffffffffffff1673ffffffffffffffffffffffffffffffffffffffff167f8be0079c531659141344cd1fd0a4f28419497f9722a3daafe3b4186f6b6457e060405160405180910390a380600360006101000a81548173ffffffffffffffffffffffffffffffffffffffff021916908373ffffffffffffffffffffffffffffffffffffffff16021790555050565b6000838311158290614874576040517f08c379a00000000000000000000000000000000000000000000000000000000081526004018080602001828103825283818151815260200191508051906020019080838360005b8381101561483957808201518184015260208101905061481e565b50505050905090810190601f1680156148665780820380516001836020036101000a031916815260200191505b509250505060405180910390fd5b5060008385039050809150509392505050565b60008083118290614933576040517f08c379a00000000000000000000000000000000000000000000000000000000081526004018080602001828103825283818151815260200191508051906020019080838360005b838110156148f85780820151818401526020810190506148dd565b50505050905090810190601f1680156149255780820380516001836020036101000a031916815260200191505b509250505060405180910390fd5b50600083858161493f57fe5b049050809150509392505050565b61496c8273ffffffffffffffffffffffffffffffffffffffff16614c9e565b6149de576040517f08c379a000000000000000000000000000000000000000000000000000000000815260040180806020018281038252601f8152602001807f5361666545524332303a2063616c6c20746f206e6f6e2d636f6e74726163740081525060200191505060405180910390fd5b600060608373ffffffffffffffffffffffffffffffffffffffff16836040518082805190602001908083835b60208310614a2d5780518252602082019150602081019050602083039250614a0a565b6001836020036101000a0380198251168184511680821785525050505050509050019150506000604051808303816000865af19150503d8060008114614a8f576040519150601f19603f3d011682016040523d82523d6000602084013e614a94565b606091505b509150915081614b0c576040517f08c379a00000000000000000000000000000000000000000000000000000000081526004018080602001828103825260208152602001807f5361666545524332303a206c6f772d6c6576656c2063616c6c206661696c656481525060200191505060405180910390fd5b600081511115614b9257808060200190516020811015614b2b57600080fd5b8101908080519060200190929190505050614b91576040517f08c379a000000000000000000000000000000000000000000000000000000000815260040180806020018281038252602a815260200180614df7602a913960400191505060405180910390fd5b5b50505050565b614c98848573ffffffffffffffffffffffffffffffffffffffff166323b872dd905060e01b858585604051602401808473ffffffffffffffffffffffffffffffffffffffff1673ffffffffffffffffffffffffffffffffffffffff1681526020018373ffffffffffffffffffffffffffffffffffffffff1673ffffffffffffffffffffffffffffffffffffffff1681526020018281526020019350505050604051602081830303815290604052907bffffffffffffffffffffffffffffffffffffffffffffffffffffffff19166020820180517bffffffffffffffffffffffffffffffffffffffffffffffffffffffff838183161783525050505061494d565b50505050565b60008060007fc5d2460186f7233c927e7db2dcc703c0e500b653ca82273b7bfad8045d85a47060001b9050833f9150808214158015614ce057506000801b8214155b92505050919050565b828054600181600116156101000203166002900490600052602060002090601f016020900481019282601f10614d2a57805160ff1916838001178555614d58565b82800160010185558215614d58579182015b82811115614d57578251825591602001919060010190614d3c565b5b509050614d659190614d69565b5090565b614d8b91905b80821115614d87576000816000905550600101614d6f565b5090565b9056fe4f776e61626c653a206e6577206f776e657220697320746865207a65726f2061646472657373536166654d6174683a206d756c7469706c69636174696f6e206f766572666c6f7743616c6c6572206973206e6f742072657761726420646973747269627574696f6e5361666545524332303a204552433230206f7065726174696f6e20646964206e6f742073756363656564a265627a7a7231582025c5b96de9764b633b7552abb04a031133ee1608d4b4ede758c3c95d01350e8764736f6c634300051000324c50546f6b656e577261707065723a2063616e27742073657420746865206c7020746f6b656e206164647265737320746f20746865207a65726f2061646472657373316561726e526577617264733a2063616e2774207365742074686520676f7665726e616e636520746f6b656e206164647265737320746f20746865207a65726f2061646472657373",
  "source": "pragma solidity >=0.4.21 <0.6.0;\n\nimport \"@openzeppelin/contracts/math/SafeMath.sol\";\nimport \"@openzeppelin/contracts/math/Math.sol\";\nimport \"@openzeppelin/contracts/token/ERC20/SafeERC20.sol\";\nimport \"../rewards/LPTokenWrapper.sol\";\nimport \"../rewards/IRewardDistributionRecipient.sol\";\n\ninterface Executor {\n    function execute(uint, uint, uint, uint) external;\n}\n\ncontract OneEarnGovernance is LPTokenWrapper, IRewardDistributionRecipient {\n  \n  IERC20 public rewardToken;\n\n  constructor(address _lpToken, address _rewardToken, uint256 _proposalCount) public LPTokenWrapper(_lpToken) {\n    require(_rewardToken != address(0), \"1earnRewards: can't set the governance token address to the zero address\");\n    rewardToken = IERC20(_rewardToken);\n    governance = msg.sender;\n    initialize(_proposalCount);\n  }\n\n    /* Fee collection for any other token */\n    \n    function seize(IERC20 _token, uint amount) external {\n        require(msg.sender == governance, \"!governance\");\n        require(_token != lpToken, \"lpToken\");\n        require(_token != rewardToken, \"rewardToken\");\n        _token.safeTransfer(governance, amount);\n    }\n    \n    /* Fees breaker, to protect withdraws if anything ever goes wrong */\n    \n    bool public breaker = false;\n    \n    function setBreaker(bool _breaker) external {\n        require(msg.sender == governance, \"!governance\");\n        breaker = _breaker;\n    }\n    \n    /* Modifications for proposals */\n    \n    mapping(address => uint) public voteLock; // period that your sake it locked to keep it for voting\n    \n    struct Proposal {\n        uint id;\n        address proposer;\n        mapping(address => uint) forVotes;\n        mapping(address => uint) againstVotes;\n        uint totalForVotes;\n        uint totalAgainstVotes;\n        uint start; // block start;\n        uint end; // start + period\n        address executor;\n        string hash;\n        uint totalVotesAvailable;\n        uint quorum;\n        uint quorumRequired;\n        bool open;\n    }\n    \n    mapping (uint => Proposal) public proposals;\n    uint public proposalCount;\n    uint public period = 17280; // 1 day on Harmony, 1 block = 5s - original: voting period in blocks ~ 17280 3 days for 15s/block\n    uint public lock = 17280; // 1 day on Harmony, 1 block = 5s - original: vote lock in blocks ~ 17280 3 days for 15s/block\n    uint public minimum = 0; //Enable creating proposals without having voted before - kinda chicken & egg problem when minimum >= 0 w/0 previous votes - default: 1e18;\n    uint public quorum = 2000;\n    bool public config = true;\n    \n    \n    address public governance;\n    \n    function setGovernance(address _governance) public {\n        require(msg.sender == governance, \"!governance\");\n        governance = _governance;\n    }\n    \n    function setQuorum(uint _quorum) public {\n        require(msg.sender == governance, \"!governance\");\n        quorum = _quorum;\n    }\n    \n    function setMinimum(uint _minimum) public {\n        require(msg.sender == governance, \"!governance\");\n        minimum = _minimum;\n    }\n    \n    function setPeriod(uint _period) public {\n        require(msg.sender == governance, \"!governance\");\n        period = _period;\n    }\n    \n    function setLock(uint _lock) public {\n        require(msg.sender == governance, \"!governance\");\n        lock = _lock;\n    }\n    \n    function initialize(uint id) public {\n        require(config == true, \"!config\");\n        config = false;\n        proposalCount = id;\n        //governance = 0xFEB4acf3df3cDEA7399794D0869ef76A6EfAff52;\n    }\n    \n    event NewProposal(uint id, address creator, uint start, uint duration, address executor);\n    event Vote(uint indexed id, address indexed voter, bool vote, uint weight);\n    \n    function propose(address executor, string memory hash) public {\n        require(votesOf(msg.sender) >= minimum, \"<minimum\");\n        proposals[proposalCount++] = Proposal({\n            id: proposalCount,\n            proposer: msg.sender,\n            totalForVotes: 0,\n            totalAgainstVotes: 0,\n            start: block.number,\n            end: period.add(block.number),\n            executor: executor,\n            hash: hash,\n            totalVotesAvailable: totalVotes,\n            quorum: 0,\n            quorumRequired: quorum,\n            open: true\n        });\n        \n        emit NewProposal(proposalCount, msg.sender, block.number, period, executor);\n        voteLock[msg.sender] = lock.add(block.number);\n    }\n    \n    function execute(uint id) public {\n        (uint _for, uint _against, uint _quorum) = getStats(id);\n        require(proposals[id].quorumRequired < _quorum, \"!quorum\");\n        require(proposals[id].end < block.number , \"!end\");\n        if (proposals[id].open == true) {\n            tallyVotes(id);\n        }\n        Executor(proposals[id].executor).execute(id, _for, _against, _quorum);\n    }\n    \n    function getStats(uint id) public view returns (uint _for, uint _against, uint _quorum) {\n        _for = proposals[id].totalForVotes;\n        _against = proposals[id].totalAgainstVotes;\n        \n        uint _total = _for.add(_against);\n        _for = _for.mul(10000).div(_total);\n        _against = _against.mul(10000).div(_total);\n        \n        _quorum = _total.mul(10000).div(proposals[id].totalVotesAvailable);\n    }\n    \n    event ProposalFinished(uint indexed id, uint _for, uint _against, bool quorumReached);\n    \n    function tallyVotes(uint id) public {\n        require(proposals[id].open == true, \"!open\");\n        require(proposals[id].end < block.number, \"!end\");\n        \n        (uint _for, uint _against,) = getStats(id);\n        bool _quorum = false;\n        if (proposals[id].quorum >= proposals[id].quorumRequired) {\n            _quorum = true;\n        }\n        proposals[id].open = false;\n        emit ProposalFinished(id, _for, _against, _quorum);\n    }\n    \n    function votesOf(address voter) public view returns (uint) {\n        return votes[voter];\n    }\n    \n    uint public totalVotes;\n    mapping(address => uint) public votes;\n    event RegisterVoter(address voter, uint votes, uint totalVotes);\n    event RevokeVoter(address voter, uint votes, uint totalVotes);\n    \n    function register() public {\n        require(voters[msg.sender] == false, \"voter\");\n        voters[msg.sender] = true;\n        votes[msg.sender] = balanceOf(msg.sender);\n        totalVotes = totalVotes.add(votes[msg.sender]);\n        emit RegisterVoter(msg.sender, votes[msg.sender], totalVotes);\n    }\n    \n    \n    function revoke() public {\n        require(voters[msg.sender] == true, \"!voter\");\n        voters[msg.sender] = false;\n        if (totalVotes < votes[msg.sender]) {\n            //edge case, should be impossible, but this is defi\n            totalVotes = 0;\n        } else {\n            totalVotes = totalVotes.sub(votes[msg.sender]);\n        }\n        emit RevokeVoter(msg.sender, votes[msg.sender], totalVotes);\n        votes[msg.sender] = 0;\n    }\n    \n    mapping(address => bool) public voters;\n    \n    function voteFor(uint id) public {\n        require(proposals[id].start < block.number , \"<start\");\n        require(proposals[id].end > block.number , \">end\");\n        \n        uint _against = proposals[id].againstVotes[msg.sender];\n        if (_against > 0) {\n            proposals[id].totalAgainstVotes = proposals[id].totalAgainstVotes.sub(_against);\n            proposals[id].againstVotes[msg.sender] = 0;\n        }\n        \n        uint vote = votesOf(msg.sender).sub(proposals[id].forVotes[msg.sender]);\n        proposals[id].totalForVotes = proposals[id].totalForVotes.add(vote);\n        proposals[id].forVotes[msg.sender] = votesOf(msg.sender);\n        \n        proposals[id].totalVotesAvailable = totalVotes;\n        uint _votes = proposals[id].totalForVotes.add(proposals[id].totalAgainstVotes);\n        proposals[id].quorum = _votes.mul(10000).div(totalVotes);\n        \n        voteLock[msg.sender] = lock.add(block.number);\n        \n        emit Vote(id, msg.sender, true, vote);\n    }\n    \n    function voteAgainst(uint id) public {\n        require(proposals[id].start < block.number , \"<start\");\n        require(proposals[id].end > block.number , \">end\");\n        \n        uint _for = proposals[id].forVotes[msg.sender];\n        if (_for > 0) {\n            proposals[id].totalForVotes = proposals[id].totalForVotes.sub(_for);\n            proposals[id].forVotes[msg.sender] = 0;\n        }\n        \n        uint vote = votesOf(msg.sender).sub(proposals[id].againstVotes[msg.sender]);\n        proposals[id].totalAgainstVotes = proposals[id].totalAgainstVotes.add(vote);\n        proposals[id].againstVotes[msg.sender] = votesOf(msg.sender);\n        \n        proposals[id].totalVotesAvailable = totalVotes;\n        uint _votes = proposals[id].totalForVotes.add(proposals[id].totalAgainstVotes);\n        proposals[id].quorum = _votes.mul(10000).div(totalVotes);\n        \n        voteLock[msg.sender] = lock.add(block.number);\n        \n        emit Vote(id, msg.sender, false, vote);\n    }\n    \n    /* Default rewards contract */\n    \n    uint256 public constant DURATION = 7 days;\n\n    uint256 public periodFinish = 0;\n    uint256 public rewardRate = 0;\n    uint256 public lastUpdateTime;\n    uint256 public rewardPerTokenStored;\n    mapping(address => uint256) public userRewardPerTokenPaid;\n    mapping(address => uint256) public rewards;\n\n    event RewardAdded(uint256 reward);\n    event Staked(address indexed user, uint256 amount);\n    event Withdrawn(address indexed user, uint256 amount);\n    event RewardPaid(address indexed user, uint256 reward);\n\n    modifier updateReward(address account) {\n        rewardPerTokenStored = rewardPerToken();\n        lastUpdateTime = lastTimeRewardApplicable();\n        if (account != address(0)) {\n            rewards[account] = earned(account);\n            userRewardPerTokenPaid[account] = rewardPerTokenStored;\n        }\n        _;\n    }\n\n    function lastTimeRewardApplicable() public view returns (uint256) {\n        return Math.min(block.timestamp, periodFinish);\n    }\n\n    function rewardPerToken() public view returns (uint256) {\n        if (totalSupply() == 0) {\n            return rewardPerTokenStored;\n        }\n        return\n            rewardPerTokenStored.add(\n                lastTimeRewardApplicable()\n                    .sub(lastUpdateTime)\n                    .mul(rewardRate)\n                    .mul(1e18)\n                    .div(totalSupply())\n            );\n    }\n\n    function earned(address account) public view returns (uint256) {\n        return\n            balanceOf(account)\n                .mul(rewardPerToken().sub(userRewardPerTokenPaid[account]))\n                .div(1e18)\n                .add(rewards[account]);\n    }\n\n    // stake visibility is public as overriding LPTokenWrapper's stake() function\n    function stake(uint256 amount) public updateReward(msg.sender) {\n        require(amount > 0, \"Cannot stake 0\");\n        if (voters[msg.sender] == true) {\n            votes[msg.sender] = votes[msg.sender].add(amount);\n            totalVotes = totalVotes.add(amount);\n        }\n        super.stake(amount);\n        emit Staked(msg.sender, amount);\n    }\n\n    function withdraw(uint256 amount) public updateReward(msg.sender) {\n        require(amount > 0, \"Cannot withdraw 0\");\n        if (voters[msg.sender] == true) {\n            votes[msg.sender] = votes[msg.sender].sub(amount);\n            totalVotes = totalVotes.sub(amount);\n        }\n        if (breaker == false) {\n            require(voteLock[msg.sender] < block.number,\"!locked\");\n        }\n        super.withdraw(amount);\n        emit Withdrawn(msg.sender, amount);\n    }\n\n    function exit() external {\n        withdraw(balanceOf(msg.sender));\n        getReward();\n    }\n\n    function getReward() public updateReward(msg.sender) {\n        if (breaker == false) {\n            require(voteLock[msg.sender] > block.number,\"!voted\");\n        }\n        uint256 reward = earned(msg.sender);\n        if (reward > 0) {\n            rewards[msg.sender] = 0;\n            rewardToken.safeTransfer(msg.sender, reward);\n            emit RewardPaid(msg.sender, reward);\n        }\n    }\n\n  function notifyRewardAmount(uint256 reward)\n    external\n    onlyRewardDistribution\n    updateReward(address(0))\n  {\n    if (block.timestamp >= periodFinish) {\n      rewardRate = reward.div(DURATION);\n    } else {\n      uint256 remaining = periodFinish.sub(block.timestamp);\n      uint256 leftover = remaining.mul(rewardRate);\n      rewardRate = reward.add(leftover).div(DURATION);\n    }\n    lastUpdateTime = block.timestamp;\n    periodFinish = block.timestamp.add(DURATION);\n    emit RewardAdded(reward);\n  }\n}",
  "sourcePath": "/Users/sebastianjohnsson/Programming/Solidity/hfi/contracts/governance/OneEarnGovernance.sol",
  "compiler": {
    "name": "solc",
    "version": "0.5.16+commit.9c3226ce.Emscripten.clang"
  },
  "schemaVersion": "3.2.3",
  "updatedAt": "2020-08-09T13:24:06.079Z",
  "networkType": "ethereum",
  "devdoc": {
    "methods": {
      "isOwner()": {
        "details": "Returns true if the caller is the current owner."
      },
      "owner()": {
        "details": "Returns the address of the current owner."
      },
      "renounceOwnership()": {
        "details": "Leaves the contract without owner. It will not be possible to call `onlyOwner` functions anymore. Can only be called by the current owner.     * NOTE: Renouncing ownership will leave the contract without an owner, thereby removing any functionality that is only available to the owner."
      },
      "transferOwnership(address)": {
        "details": "Transfers ownership of the contract to a new account (`newOwner`). Can only be called by the current owner."
      }
    }
  },
  "userdoc": {
    "methods": {}
  }
}